{
  "contractName": "BitLumensCrowdsale",
  "abi": [
    {
      "constant": true,
      "inputs": [
        {
          "name": "",
          "type": "address"
        }
      ],
      "name": "isKycSigner",
      "outputs": [
        {
          "name": "",
          "type": "bool"
        }
      ],
      "payable": false,
      "stateMutability": "view",
      "type": "function"
    },
    {
      "constant": true,
      "inputs": [],
      "name": "bitlumensDelivered",
      "outputs": [
        {
          "name": "",
          "type": "bool"
        }
      ],
      "payable": false,
      "stateMutability": "view",
      "type": "function"
    },
    {
      "constant": true,
      "inputs": [],
      "name": "TOKEN_THIRD_PRICE_RATE",
      "outputs": [
        {
          "name": "",
          "type": "uint256"
        }
      ],
      "payable": false,
      "stateMutability": "view",
      "type": "function"
    },
    {
      "constant": true,
      "inputs": [],
      "name": "USD_SOFT_CAP",
      "outputs": [
        {
          "name": "",
          "type": "uint256"
        }
      ],
      "payable": false,
      "stateMutability": "view",
      "type": "function"
    },
    {
      "constant": true,
      "inputs": [],
      "name": "ETH_USD_EXCHANGE_CENTS",
      "outputs": [
        {
          "name": "",
          "type": "uint256"
        }
      ],
      "payable": false,
      "stateMutability": "view",
      "type": "function"
    },
    {
      "constant": true,
      "inputs": [],
      "name": "weiRaised",
      "outputs": [
        {
          "name": "",
          "type": "uint256"
        }
      ],
      "payable": false,
      "stateMutability": "view",
      "type": "function"
    },
    {
      "constant": true,
      "inputs": [],
      "name": "wallet",
      "outputs": [
        {
          "name": "",
          "type": "address"
        }
      ],
      "payable": false,
      "stateMutability": "view",
      "type": "function"
    },
    {
      "constant": true,
      "inputs": [],
      "name": "bountyDelivered",
      "outputs": [
        {
          "name": "",
          "type": "bool"
        }
      ],
      "payable": false,
      "stateMutability": "view",
      "type": "function"
    },
    {
      "constant": true,
      "inputs": [],
      "name": "roundThreeTime",
      "outputs": [
        {
          "name": "",
          "type": "uint256"
        }
      ],
      "payable": false,
      "stateMutability": "view",
      "type": "function"
    },
    {
      "constant": true,
      "inputs": [],
      "name": "dollarRaised",
      "outputs": [
        {
          "name": "",
          "type": "uint256"
        }
      ],
      "payable": false,
      "stateMutability": "view",
      "type": "function"
    },
    {
      "constant": true,
      "inputs": [],
      "name": "owner",
      "outputs": [
        {
          "name": "",
          "type": "address"
        }
      ],
      "payable": false,
      "stateMutability": "view",
      "type": "function"
    },
    {
      "constant": true,
      "inputs": [
        {
          "name": "",
          "type": "uint64"
        }
      ],
      "name": "alreadyPayed",
      "outputs": [
        {
          "name": "",
          "type": "uint256"
        }
      ],
      "payable": false,
      "stateMutability": "view",
      "type": "function"
    },
    {
      "constant": true,
      "inputs": [],
      "name": "etherPriceUSD",
      "outputs": [
        {
          "name": "",
          "type": "uint256"
        }
      ],
      "payable": false,
      "stateMutability": "view",
      "type": "function"
    },
    {
      "constant": true,
      "inputs": [],
      "name": "roundFourTime",
      "outputs": [
        {
          "name": "",
          "type": "uint256"
        }
      ],
      "payable": false,
      "stateMutability": "view",
      "type": "function"
    },
    {
      "constant": true,
      "inputs": [],
      "name": "isPreallocated",
      "outputs": [
        {
          "name": "",
          "type": "bool"
        }
      ],
      "payable": false,
      "stateMutability": "view",
      "type": "function"
    },
    {
      "constant": false,
      "inputs": [
        {
          "name": "buyerAddress",
          "type": "address"
        },
        {
          "name": "buyerId",
          "type": "uint64"
        },
        {
          "name": "maxAmount",
          "type": "uint256"
        },
        {
          "name": "v",
          "type": "uint8"
        },
        {
          "name": "r",
          "type": "bytes32"
        },
        {
          "name": "s",
          "type": "bytes32"
        }
      ],
      "name": "buyTokensFor",
      "outputs": [
        {
          "name": "",
          "type": "bool"
        }
      ],
      "payable": true,
      "stateMutability": "payable",
      "type": "function"
    },
    {
      "constant": true,
      "inputs": [],
      "name": "TOKEN_FIRST_PRICE_RATE",
      "outputs": [
        {
          "name": "",
          "type": "uint256"
        }
      ],
      "payable": false,
      "stateMutability": "view",
      "type": "function"
    },
    {
      "constant": true,
      "inputs": [],
      "name": "state",
      "outputs": [
        {
          "name": "",
          "type": "uint8"
        }
      ],
      "payable": false,
      "stateMutability": "view",
      "type": "function"
    },
    {
      "constant": true,
      "inputs": [],
      "name": "BLS_PRE_ICO",
      "outputs": [
        {
          "name": "",
          "type": "uint256"
        }
      ],
      "payable": false,
      "stateMutability": "view",
      "type": "function"
    },
    {
      "constant": true,
      "inputs": [],
      "name": "TOKEN_SECOND_PRICE_RATE",
      "outputs": [
        {
          "name": "",
          "type": "uint256"
        }
      ],
      "payable": false,
      "stateMutability": "view",
      "type": "function"
    },
    {
      "constant": true,
      "inputs": [],
      "name": "roundTwoTime",
      "outputs": [
        {
          "name": "",
          "type": "uint256"
        }
      ],
      "payable": false,
      "stateMutability": "view",
      "type": "function"
    },
    {
      "constant": true,
      "inputs": [],
      "name": "TOKEN_FOURTH_PRICE_RATE",
      "outputs": [
        {
          "name": "",
          "type": "uint256"
        }
      ],
      "payable": false,
      "stateMutability": "view",
      "type": "function"
    },
    {
      "constant": true,
      "inputs": [],
      "name": "teamTokensDelivered",
      "outputs": [
        {
          "name": "",
          "type": "bool"
        }
      ],
      "payable": false,
      "stateMutability": "view",
      "type": "function"
    },
    {
      "constant": true,
      "inputs": [],
      "name": "roundFiveTime",
      "outputs": [
        {
          "name": "",
          "type": "uint256"
        }
      ],
      "payable": false,
      "stateMutability": "view",
      "type": "function"
    },
    {
      "constant": false,
      "inputs": [
        {
          "name": "buyerId",
          "type": "uint64"
        },
        {
          "name": "maxAmount",
          "type": "uint256"
        },
        {
          "name": "v",
          "type": "uint8"
        },
        {
          "name": "r",
          "type": "bytes32"
        },
        {
          "name": "s",
          "type": "bytes32"
        }
      ],
      "name": "buyTokens",
      "outputs": [
        {
          "name": "",
          "type": "bool"
        }
      ],
      "payable": true,
      "stateMutability": "payable",
      "type": "function"
    },
    {
      "constant": true,
      "inputs": [],
      "name": "BLS_TOTAL_CAP",
      "outputs": [
        {
          "name": "",
          "type": "uint256"
        }
      ],
      "payable": false,
      "stateMutability": "view",
      "type": "function"
    },
    {
      "constant": false,
      "inputs": [
        {
          "name": "newOwner",
          "type": "address"
        }
      ],
      "name": "transferOwnership",
      "outputs": [],
      "payable": false,
      "stateMutability": "nonpayable",
      "type": "function"
    },
    {
      "constant": true,
      "inputs": [],
      "name": "TOKEN_FIFTH_PRICE_RATE",
      "outputs": [
        {
          "name": "",
          "type": "uint256"
        }
      ],
      "payable": false,
      "stateMutability": "view",
      "type": "function"
    },
    {
      "constant": true,
      "inputs": [],
      "name": "vault",
      "outputs": [
        {
          "name": "",
          "type": "address"
        }
      ],
      "payable": false,
      "stateMutability": "view",
      "type": "function"
    },
    {
      "constant": true,
      "inputs": [],
      "name": "token",
      "outputs": [
        {
          "name": "",
          "type": "address"
        }
      ],
      "payable": false,
      "stateMutability": "view",
      "type": "function"
    },
    {
      "constant": true,
      "inputs": [],
      "name": "USD_HARD_CAP",
      "outputs": [
        {
          "name": "",
          "type": "uint256"
        }
      ],
      "payable": false,
      "stateMutability": "view",
      "type": "function"
    },
    {
      "inputs": [
        {
          "name": "kycSigner",
          "type": "address[]"
        },
        {
          "name": "_token",
          "type": "address"
        },
        {
          "name": "_wallet",
          "type": "address"
        },
        {
          "name": "_startTime",
          "type": "uint256"
        },
        {
          "name": "_roundTwoTime",
          "type": "uint256"
        },
        {
          "name": "_roundThreeTime",
          "type": "uint256"
        },
        {
          "name": "_roundFourTime",
          "type": "uint256"
        },
        {
          "name": "_roundFiveTime",
          "type": "uint256"
        },
        {
          "name": "_endTime",
          "type": "uint256"
        },
        {
          "name": "_BlsPreIco",
          "type": "uint256"
        },
        {
          "name": "_blsTotalCap",
          "type": "uint256"
        },
        {
          "name": "_softCapUsd",
          "type": "uint256"
        },
        {
          "name": "_hardCapUsd",
          "type": "uint256"
        },
        {
          "name": "_ethUsdExchangeCents",
          "type": "uint256"
        }
      ],
      "payable": true,
      "stateMutability": "payable",
      "type": "constructor"
    },
    {
      "payable": false,
      "stateMutability": "nonpayable",
      "type": "fallback"
    },
    {
      "anonymous": false,
      "inputs": [
        {
          "indexed": false,
          "name": "text",
          "type": "string"
        }
      ],
      "name": "Log",
      "type": "event"
    },
    {
      "anonymous": false,
      "inputs": [
        {
          "indexed": true,
          "name": "purchaser",
          "type": "address"
        },
        {
          "indexed": true,
          "name": "beneficiary",
          "type": "address"
        },
        {
          "indexed": false,
          "name": "value",
          "type": "uint256"
        },
        {
          "indexed": false,
          "name": "amount",
          "type": "uint256"
        }
      ],
      "name": "TokenPurchase",
      "type": "event"
    },
    {
      "anonymous": false,
      "inputs": [],
      "name": "FinalizedOK",
      "type": "event"
    },
    {
      "anonymous": false,
      "inputs": [],
      "name": "FinalizedNOK",
      "type": "event"
    },
    {
      "anonymous": false,
      "inputs": [
        {
          "indexed": true,
          "name": "to",
          "type": "address"
        },
        {
          "indexed": false,
          "name": "amount",
          "type": "uint256"
        }
      ],
      "name": "Preallocated",
      "type": "event"
    },
    {
      "anonymous": false,
      "inputs": [
        {
          "indexed": true,
          "name": "signer",
          "type": "address"
        },
        {
          "indexed": false,
          "name": "buyerAddress",
          "type": "address"
        },
        {
          "indexed": false,
          "name": "buyerId",
          "type": "uint64"
        },
        {
          "indexed": false,
          "name": "maxAmount",
          "type": "uint256"
        }
      ],
      "name": "KycVerified",
      "type": "event"
    },
    {
      "anonymous": false,
      "inputs": [
        {
          "indexed": true,
          "name": "previousOwner",
          "type": "address"
        },
        {
          "indexed": true,
          "name": "newOwner",
          "type": "address"
        }
      ],
      "name": "OwnershipTransferred",
      "type": "event"
    },
    {
      "constant": false,
      "inputs": [
        {
          "name": "_myid",
          "type": "bytes32"
        },
        {
          "name": "_result",
          "type": "string"
        }
      ],
      "name": "__callback",
      "outputs": [],
      "payable": false,
      "stateMutability": "nonpayable",
      "type": "function"
    },
    {
      "constant": false,
      "inputs": [
        {
          "name": "myid",
          "type": "bytes32"
        },
        {
          "name": "result",
          "type": "string"
        },
        {
          "name": "proof",
          "type": "bytes"
        }
      ],
      "name": "__callback",
      "outputs": [],
      "payable": false,
      "stateMutability": "nonpayable",
      "type": "function"
    },
    {
      "constant": false,
      "inputs": [],
      "name": "update",
      "outputs": [],
      "payable": true,
      "stateMutability": "payable",
      "type": "function"
    },
    {
      "constant": true,
      "inputs": [],
      "name": "orcPrice",
      "outputs": [
        {
          "name": "",
          "type": "uint256"
        }
      ],
      "payable": false,
      "stateMutability": "view",
      "type": "function"
    },
    {
      "constant": false,
      "inputs": [
        {
          "name": "bitlumensAccount",
          "type": "address"
        },
        {
          "name": "teamAccount",
          "type": "address"
        },
        {
          "name": "bountyAccount",
          "type": "address"
        }
      ],
      "name": "finalize",
      "outputs": [],
      "payable": false,
      "stateMutability": "nonpayable",
      "type": "function"
    },
    {
      "constant": false,
      "inputs": [],
      "name": "finalizeNOK",
      "outputs": [],
      "payable": false,
      "stateMutability": "nonpayable",
      "type": "function"
    },
    {
      "constant": false,
      "inputs": [],
      "name": "claimRefund",
      "outputs": [],
      "payable": false,
      "stateMutability": "nonpayable",
      "type": "function"
    },
    {
      "constant": true,
      "inputs": [],
      "name": "started",
      "outputs": [
        {
          "name": "",
          "type": "bool"
        }
      ],
      "payable": false,
      "stateMutability": "view",
      "type": "function"
    },
    {
      "constant": true,
      "inputs": [],
      "name": "ended",
      "outputs": [
        {
          "name": "",
          "type": "bool"
        }
      ],
      "payable": false,
      "stateMutability": "view",
      "type": "function"
    },
    {
      "constant": true,
      "inputs": [],
      "name": "startTime",
      "outputs": [
        {
          "name": "",
          "type": "uint256"
        }
      ],
      "payable": false,
      "stateMutability": "view",
      "type": "function"
    },
    {
      "constant": true,
      "inputs": [],
      "name": "endTime",
      "outputs": [
        {
          "name": "",
          "type": "uint256"
        }
      ],
      "payable": false,
      "stateMutability": "view",
      "type": "function"
    },
    {
      "constant": true,
      "inputs": [],
      "name": "totalTokens",
      "outputs": [
        {
          "name": "",
          "type": "uint256"
        }
      ],
      "payable": false,
      "stateMutability": "view",
      "type": "function"
    },
    {
      "constant": true,
      "inputs": [],
      "name": "remainingTokens",
      "outputs": [
        {
          "name": "",
          "type": "uint256"
        }
      ],
      "payable": false,
      "stateMutability": "view",
      "type": "function"
    },
    {
      "constant": true,
      "inputs": [],
      "name": "price",
      "outputs": [
        {
          "name": "",
          "type": "uint256"
        }
      ],
      "payable": false,
      "stateMutability": "view",
      "type": "function"
    }
  ],
  "bytecode": "0x606060409081526101f46009556016805462ffffff191690555162002861380380620028618339810160405280805182019190602001805191906020018051919060200180519190602001805191906020018051919060200180519190602001805191906020018051919060200180519190602001805191906020018051919060200180519190602001805160008054600160a060020a03191633600160a060020a03161781559092508f91505b815181101562000104576001806000848481518110620000c957fe5b90602001906020020151600160a060020a031681526020810191909152604001600020805460ff1916911515919091179055600101620000ad565b5050600160a060020a038d1615156200011c57600080fd5b600160a060020a038c1615156200013257600080fd5b428b116200013f57600080fd5b898b106200014c57600080fd5b888a106200015957600080fd5b8789106200016657600080fd5b8688106200017357600080fd5b8587106200018057600080fd5b8c600e60016101000a815481600160a060020a030219169083600160a060020a031602179055508b600f60006101000a815481600160a060020a030219169083600160a060020a031602179055508a60108190555085601181905550896012819055508860138190555087601481905550866015819055508060098190555082600a8190555081600b8190555084600d8190555083600c8190555083601881905550836017819055508b62000234620002a1565b600160a060020a039091168152602001604051809103906000f08015156200025b57600080fd5b601b8054600160a060020a03929092166101000261010060a860020a03199092169190911790555050600e805460ff1916905550620002b29a5050505050505050505050565b60405161060c806200225583390190565b611f9380620002c26000396000f30060606040526004361061020b5763ffffffff60e060020a6000350416630570d568811461021b578063096b40391461024e5780630ee75f6b1461026157806312fa6feb1461028657806316ae10f5146102995780631f2698ab146102ac57806325a86d56146102bf57806327dc297e146102d25780633197cbb61461032a57806338bbfa501461033d5780634042b66f146103d5578063430fbe19146103e8578063521eb273146103fb57806352a007791461042a5780635c044b861461043d57806373980d691461045057806378e97925146104635780637cf37493146104765780637e1c0c09146104895780638da5cb5b1461049c5780639a359d8e146104af5780639f0650d9146104cf5780639f8ae5d3146104e2578063a035b1fe146104f5578063a2e6204514610508578063a39495f014610510578063ae45783514610523578063b5545a3c14610553578063bc3589bf14610566578063bf58390314610579578063c19d93fb1461058c578063c52f02ce146105c3578063c85c11eb146105d6578063cba91a35146105e9578063cd05c214146105fc578063d16be71b1461060f578063d58b828214610622578063dee4b24614610635578063e80b65f814610659578063eb1ebd9314610684578063f2fde38b14610697578063f5173120146106b6578063fbfa77cf146106c9578063fc0c546a146106dc578063fea1377d146106ef575b341561021657600080fd5b600080fd5b341561022657600080fd5b61023a600160a060020a0360043516610702565b604051901515815260200160405180910390f35b341561025957600080fd5b61023a610717565b341561026c57600080fd5b610274610726565b60405190815260200160405180910390f35b341561029157600080fd5b61023a61072b565b34156102a457600080fd5b610274610744565b34156102b757600080fd5b61023a61074a565b34156102ca57600080fd5b610274610753565b34156102dd57600080fd5b610328600480359060446024803590810190830135806020601f8201819004810201604051908101604052818152929190602084018383808284375094965061075995505050505050565b005b341561033557600080fd5b61027461082a565b341561034857600080fd5b610328600480359060446024803590810190830135806020601f8201819004810201604051908101604052818152929190602084018383808284378201915050505050509190803590602001908201803590602001908080601f01602080910402602001604051908101604052818152929190602084018383808284375094965061083095505050505050565b34156103e057600080fd5b610274610835565b34156103f357600080fd5b61027461083b565b341561040657600080fd5b61040e610841565b604051600160a060020a03909116815260200160405180910390f35b341561043557600080fd5b61023a610850565b341561044857600080fd5b61027461085e565b341561045b57600080fd5b610274610864565b341561046e57600080fd5b61027461086a565b341561048157600080fd5b610328610870565b341561049457600080fd5b61027461094a565b34156104a757600080fd5b61040e610950565b34156104ba57600080fd5b61027467ffffffffffffffff6004351661095f565b34156104da57600080fd5b610274610971565b34156104ed57600080fd5b610274610977565b341561050057600080fd5b61027461097d565b6103286109cf565b341561051b57600080fd5b61023a610a93565b61023a600160a060020a036004351667ffffffffffffffff6024351660443560ff6064351660843560a435610a9c565b341561055e57600080fd5b610328610acb565b341561057157600080fd5b610274610b4a565b341561058457600080fd5b610274610b4f565b341561059757600080fd5b61059f610b55565b604051808260028111156105af57fe5b60ff16815260200191505060405180910390f35b34156105ce57600080fd5b610274610b5e565b34156105e157600080fd5b610274610b64565b34156105f457600080fd5b610274610b69565b341561060757600080fd5b610274610b6f565b341561061a57600080fd5b61023a610b74565b341561062d57600080fd5b610274610b7d565b61023a67ffffffffffffffff6004351660243560ff60443516606435608435610b83565b341561066457600080fd5b610328600160a060020a0360043581169060243581169060443516610b9d565b341561068f57600080fd5b610274610f3b565b34156106a257600080fd5b610328600160a060020a0360043516610f41565b34156106c157600080fd5b610274610fcf565b34156106d457600080fd5b61040e610fd4565b34156106e757600080fd5b61040e610fe8565b34156106fa57600080fd5b610274610ffc565b60016020526000908152604090205460ff1681565b60165462010000900460ff1681565b600e81565b60006011544210158061073e5750601754155b90505b90565b600a5481565b60105442101590565b60095481565b610761611002565b600160a060020a031633600160a060020a031614151561078057600080fd5b7fcf34ef537ac33ee1ac626ca1587a0a7e8e51561e5514f8cb36afa1c5102b3bab8160405160208082528190810183818151815260200191508051906020019080838360005b838110156107de5780820151838201526020016107c6565b50505050905090810190601f16801561080b5780820380516001836020036101000a031916815260200191505b509250505060405180910390a161082381600261117b565b6008555050565b60115490565b505050565b60195481565b60085490565b600f54600160a060020a031681565b601654610100900460ff1681565b60135481565b601a5481565b60105490565b60005433600160a060020a0390811691161461088b57600080fd5b6000600e5460ff16600281111561089e57fe5b146108a857600080fd5b6108b061072b565b15156108bb57600080fd5b601b546101009004600160a060020a0316638c52dc416040518163ffffffff1660e060020a028152600401600060405180830381600087803b15156108ff57600080fd5b5af1151561090c57600080fd5b5050600e805460ff19166002179055507fd109897c55a4e2dabb1a17786ee2444f817f27292b2c5a6886c7ec152080d45660405160405180910390a1565b60185490565b600054600160a060020a031681565b60026020526000908152604090205481565b60085481565b60145481565b600060125442101561099157506014610741565b6013544210156109a35750600f610741565b6014544210156109b55750600e610741565b6015544210156109c75750600d610741565b50600c610741565b610a906040805190810160405280600381526020017f55524c0000000000000000000000000000000000000000000000000000000000815250608060405190810160405280604981526020017f6a736f6e2868747470733a2f2f6d696e2d6170692e63727970746f636f6d706181526020017f72652e636f6d2f646174612f70726963653f6673796d3d455448267473796d7381526020017f3d555344292e5553440000000000000000000000000000000000000000000000815250611331565b50565b601b5460ff1681565b6000610aa787611676565b1515610ab257600080fd5b610ac0878787878787611695565b979650505050505050565b6002600e5460ff166002811115610ade57fe5b14610ae857600080fd5b601b546101009004600160a060020a031663fa89401a3360405160e060020a63ffffffff8416028152600160a060020a039091166004820152602401600060405180830381600087803b1515610b3d57600080fd5b5af1151561083057600080fd5b601481565b60175490565b600e5460ff1681565b600d5481565b600f81565b60125481565b600d81565b60165460ff1681565b60155481565b6000610b93338787878787611695565b9695505050505050565b600080548190819081908190819033600160a060020a03908116911614610bc357600080fd5b6000600e5460ff166002811115610bd657fe5b14610be057600080fd5b610be861072b565b1515610bf357600080fd5b600954601954610c089163ffffffff6118aa16565b600a5490965068056bc75e2d63100000029450848610610efc57601754601854039350610c3c84600263ffffffff6118dc16565b9250610c4f83606463ffffffff6118dc16565b9150610c61838363ffffffff6118f316565b600e549091506101009004600160a060020a03166340c10f198a8560405160e060020a63ffffffff8516028152600160a060020a0390921660048301526024820152604401602060405180830381600087803b1515610cbf57600080fd5b5af11515610ccc57600080fd5b50505060405180515050600e546101009004600160a060020a03166340c10f19898360405160e060020a63ffffffff8516028152600160a060020a0390921660048301526024820152604401602060405180830381600087803b1515610d3157600080fd5b5af11515610d3e57600080fd5b50505060405180515050600e546101009004600160a060020a03166340c10f19888460405160e060020a63ffffffff8516028152600160a060020a0390921660048301526024820152604401602060405180830381600087803b1515610da357600080fd5b5af11515610db057600080fd5b50505060405180515050600e546101009004600160a060020a0316637d64bcb46040518163ffffffff1660e060020a028152600401602060405180830381600087803b1515610dfe57600080fd5b5af11515610e0b57600080fd5b50505060405180515050600e546101009004600160a060020a0316631788de806040518163ffffffff1660e060020a028152600401600060405180830381600087803b1515610e5957600080fd5b5af11515610e6657600080fd5b5050601b546101009004600160a060020a031690506343d726d66040518163ffffffff1660e060020a028152600401600060405180830381600087803b1515610eae57600080fd5b5af11515610ebb57600080fd5b5050600e805460ff19166001179055507f630f5fa2c3b6bcf187d2a7de33f35a2fb7e72e899aefda6f386f29cfc67998da60405160405180910390a1610f30565b7fd109897c55a4e2dabb1a17786ee2444f817f27292b2c5a6886c7ec152080d45660405160405180910390a1610f30610870565b505050505050505050565b600c5481565b60005433600160a060020a03908116911614610f5c57600080fd5b600160a060020a0381161515610f7157600080fd5b600054600160a060020a0380831691167f8be0079c531659141344cd1fd0a4f28419497f9722a3daafe3b4186f6b6457e060405160405180910390a360008054600160a060020a031916600160a060020a0392909216919091179055565b600c81565b601b546101009004600160a060020a031681565b600e546101009004600160a060020a031681565b600b5481565b600354600090600160a060020a0316158061102f575060035461102d90600160a060020a0316611905565b155b156110405761103e6000611909565b505b600354600160a060020a03166338cc48316040518163ffffffff1660e060020a028152600401602060405180830381600087803b151561107f57600080fd5b5af1151561108c57600080fd5b5050506040518051600454600160a060020a03908116911614905061112157600354600160a060020a03166338cc48316040518163ffffffff1660e060020a028152600401602060405180830381600087803b15156110ea57600080fd5b5af115156110f757600080fd5b505050604051805160048054600160a060020a031916600160a060020a0392909216919091179055505b600454600160a060020a031663c281d19e6040518163ffffffff1660e060020a028152600401602060405180830381600087803b151561116057600080fd5b5af1151561116d57600080fd5b505050604051805191505090565b6000611185611ebd565b5082600080805b8351811015611314577f30000000000000000000000000000000000000000000000000000000000000008482815181106111c257fe5b016020015160f860020a900460f860020a027effffffffffffffffffffffffffffffffffffffffffffffffffffffffffffff19161015801561126357507f390000000000000000000000000000000000000000000000000000000000000084828151811061122c57fe5b016020015160f860020a900460f860020a027effffffffffffffffffffffffffffffffffffffffffffffffffffffffffffff191611155b156112b95781156112825785151561127a57611314565b600019909501945b600a83029250603084828151811061129657fe5b016020015160f860020a900460f860020a0260f860020a9004038301925061130c565b8381815181106112c557fe5b016020015160f860020a900460f860020a027effffffffffffffffffffffffffffffffffffffffffffffffffffffffffffff1916602e60f860020a02141561130c57600191505b60010161118c565b60008611156113265785600a0a830292505b509095945050505050565b6003546000908190600160a060020a03161580611360575060035461135e90600160a060020a0316611905565b155b156113715761136f6000611909565b505b600354600160a060020a03166338cc48316040518163ffffffff1660e060020a028152600401602060405180830381600087803b15156113b057600080fd5b5af115156113bd57600080fd5b5050506040518051600454600160a060020a03908116911614905061145257600354600160a060020a03166338cc48316040518163ffffffff1660e060020a028152600401602060405180830381600087803b151561141b57600080fd5b5af1151561142857600080fd5b505050604051805160048054600160a060020a031916600160a060020a0392909216919091179055505b600454600160a060020a031663524f3889856040518263ffffffff1660e060020a0281526004018080602001828103825283818151815260200191508051906020019080838360005b838110156114b357808201518382015260200161149b565b50505050905090810190601f1680156114e05780820380516001836020036101000a031916815260200191505b5092505050602060405180830381600087803b15156114fe57600080fd5b5af1151561150b57600080fd5b5050506040518051915050670de0b6b3a764000062030d403a0201811115611536576000915061166f565b600454600160a060020a031663adf59f9982600087876040518563ffffffff1660e060020a028152600401808481526020018060200180602001838103835285818151815260200191508051906020019080838360005b838110156115a557808201518382015260200161158d565b50505050905090810190601f1680156115d25780820380516001836020036101000a031916815260200191505b50838103825284818151815260200191508051906020019080838360005b838110156116085780820151838201526020016115f0565b50505050905090810190601f1680156116355780820380516001836020036101000a031916815260200191505b50955050505050506020604051808303818588803b151561165557600080fd5b5af1151561166257600080fd5b5050505060405180519250505b5092915050565b600033600160a060020a031682600160a060020a03161490505b919050565b6000806000806002308b8b8b6040517f4569646f6f2069636f656e67696e6520617574686f72697a6174696f6e0000008152600160a060020a039485166c01000000000000000000000000908102601d83015293909416909202603184015267ffffffffffffffff167801000000000000000000000000000000000000000000000000026045830152604d820152606d016020604051808303816000865af1151561173f57600080fd5b50506040518051905092506001838888886040516000815260200160405260405193845260ff9092166020808501919091526040808501929092526060840192909252608090920191516020810390808403906000865af115156117a257600080fd5b505060206040510351600160a060020a03811660009081526001602052604090205490925060ff1615156117d557600080fd5b67ffffffffffffffff89166000908152600260205260409020546117ff903463ffffffff611c2f16565b90508781111561180e57600080fd5b67ffffffffffffffff891660009081526002602052604090819020829055600160a060020a038316907f74e336db80b339721548db3209451cf01bd48e4a996e1bcea7f1a2abf8b06070908c908c908c9051600160a060020a03909316835267ffffffffffffffff90911660208301526040808301919091526060909101905180910390a261189c8a611c3e565b9a9950505050505050505050565b6000808315156118bd576000915061166f565b508282028284828115156118cd57fe5b04146118d557fe5b9392505050565b60008082848115156118ea57fe5b04949350505050565b6000828211156118ff57fe5b50900390565b3b90565b600080611929731d3b2638a7cc9f2cb3d298a3da7a90b67e5506ed611905565b11156119995760038054600160a060020a031916731d3b2638a7cc9f2cb3d298a3da7a90b67e5506ed17905561199160408051908101604052600b81527f6574685f6d61696e6e65740000000000000000000000000000000000000000006020820152611e3e565b506001611690565b60006119b873c03a2615d5efaf5f49f60b7bb6583eaec212fdf1611905565b1115611a205760038054600160a060020a03191673c03a2615d5efaf5f49f60b7bb6583eaec212fdf117905561199160408051908101604052600c81527f6574685f726f707374656e3300000000000000000000000000000000000000006020820152611e3e565b6000611a3f73b7a07bcf2ba2f2703b24c0691b5278999c59ac7e611905565b1115611aa75760038054600160a060020a03191673b7a07bcf2ba2f2703b24c0691b5278999c59ac7e17905561199160408051908101604052600981527f6574685f6b6f76616e00000000000000000000000000000000000000000000006020820152611e3e565b6000611ac673146500cfd35b22e4a392fe0adc06de1a1368ed48611905565b1115611b2e5760038054600160a060020a03191673146500cfd35b22e4a392fe0adc06de1a1368ed4817905561199160408051908101604052600b81527f6574685f72696e6b6562790000000000000000000000000000000000000000006020820152611e3e565b6000611b4d736f485c8bf6fc43ea212e93bbf8ce046c7f1cb475611905565b1115611b81575060038054600160a060020a031916736f485c8bf6fc43ea212e93bbf8ce046c7f1cb4751790556001611690565b6000611ba07320e12a1f859b3feae5fb2a0a32c18f5a65555bbf611905565b1115611bd4575060038054600160a060020a0319167320e12a1f859b3feae5fb2a0a32c18f5a65555bbf1790556001611690565b6000611bf37351efaf4c8b3c9afbd5ab9f4bbc82784ab6ef8faa611905565b1115611c27575060038054600160a060020a0319167351efaf4c8b3c9afbd5ab9f4bbc82784ab6ef8faa1790556001611690565b506000919050565b6000828201838110156118d557fe5b600080600080600080600080611c5261074a565b1515611c5d57600080fd5b611c6561072b565b15611c6f57600080fd5b3496506064611c89600954896118aa90919063ffffffff16565b811515611c9257fe5b049550611c9d61097d565b9450611caf868663ffffffff6118aa16565b9350611cc284600a63ffffffff6118dc16565b9350601754601854039250601254421015611cf557600d54611cea848663ffffffff611c2f16565b1115611cf557600080fd5b600c54611d08848663ffffffff611c2f16565b1115611d1357600080fd5b60198054880190819055600954611d30919063ffffffff6118aa16565b600b5490925068056bc75e2d6310000002905080821115611d5057600080fd5b601754611d63908563ffffffff6118f316565b601755600e546101009004600160a060020a03166340c10f198a8660405160e060020a63ffffffff8516028152600160a060020a0390921660048301526024820152604401602060405180830381600087803b1515611dc157600080fd5b5af11515611dce57600080fd5b5050506040518051905050611de1611e55565b88600160a060020a031633600160a060020a03167f623b3804fa71d67900d064613da8f94b9617215ee90799290593e1745087ad18898760405191825260208201526040908101905180910390a350600198975050505050505050565b6005818051611e51929160200190611ecf565b5050565b601b546101009004600160a060020a031663f340fa01343360405160e060020a63ffffffff8516028152600160a060020a0390911660048201526024016000604051808303818588803b1515611eaa57600080fd5b5af11515611eb757600080fd5b50505050565b60206040519081016040526000815290565b828054600181600116156101000203166002900490600052602060002090601f016020900481019282601f10611f1057805160ff1916838001178555611f3d565b82800160010185558215611f3d579182015b82811115611f3d578251825591602001919060010190611f22565b50611f49929150611f4d565b5090565b61074191905b80821115611f495760008155600101611f535600a165627a7a72305820ac2a0bf7e011da5daa28217871c447bfdc1636d596c2a4bc9b74f8a8c5cacc2000296060604052341561000f57600080fd5b60405160208061060c8339810160405280805160008054600160a060020a03191633600160a060020a039081169190911790915590925082161515905061005557600080fd5b60028054600160a060020a031916600160a060020a03929092169190911760a060020a60ff021916905561057e8061008e6000396000f3006060604052600436106100985763ffffffff7c010000000000000000000000000000000000000000000000000000000060003504166343d726d6811461009d578063521eb273146100b25780638c52dc41146100e15780638da5cb5b146100f4578063c19d93fb14610107578063cb13cddb1461013e578063f2fde38b1461016f578063f340fa011461018e578063fa89401a146101a2575b600080fd5b34156100a857600080fd5b6100b06101c1565b005b34156100bd57600080fd5b6100c561029c565b604051600160a060020a03909116815260200160405180910390f35b34156100ec57600080fd5b6100b06102ab565b34156100ff57600080fd5b6100c561033c565b341561011257600080fd5b61011a61034b565b6040518082600281111561012a57fe5b60ff16815260200191505060405180910390f35b341561014957600080fd5b61015d600160a060020a036004351661035b565b60405190815260200160405180910390f35b341561017a57600080fd5b6100b0600160a060020a036004351661036d565b6100b0600160a060020a0360043516610408565b34156101ad57600080fd5b6100b0600160a060020a036004351661048c565b60005433600160a060020a039081169116146101dc57600080fd5b60006002805460a060020a900460ff16908111156101f657fe5b1461020057600080fd5b6002805474ff00000000000000000000000000000000000000001916740200000000000000000000000000000000000000001790557f1cdde67b72a90f19919ac732a437ac2f7a10fc128d28c2a6e525d89ce5cd9d3a60405160405180910390a1600254600160a060020a039081169030163180156108fc0290604051600060405180830381858888f19350505050151561029a57600080fd5b565b600254600160a060020a031681565b60005433600160a060020a039081169116146102c657600080fd5b60006002805460a060020a900460ff16908111156102e057fe5b146102ea57600080fd5b6002805474ff0000000000000000000000000000000000000000191660a060020a1790557f599d8e5a83cffb867d051598c4d70e805d59802d8081c1c7d6dffc5b6aca2b8960405160405180910390a1565b600054600160a060020a031681565b60025460a060020a900460ff1681565b60016020526000908152604090205481565b60005433600160a060020a0390811691161461038857600080fd5b600160a060020a038116151561039d57600080fd5b600054600160a060020a0380831691167f8be0079c531659141344cd1fd0a4f28419497f9722a3daafe3b4186f6b6457e060405160405180910390a36000805473ffffffffffffffffffffffffffffffffffffffff1916600160a060020a0392909216919091179055565b60005433600160a060020a0390811691161461042357600080fd5b60006002805460a060020a900460ff169081111561043d57fe5b1461044757600080fd5b600160a060020a038116600090815260016020526040902054610470903463ffffffff61053c16565b600160a060020a03909116600090815260016020526040902055565b600060016002805460a060020a900460ff16908111156104a857fe5b146104b257600080fd5b50600160a060020a038116600081815260016020526040808220805492905590919082156108fc0290839051600060405180830381858888f1935050505015156104fb57600080fd5b81600160a060020a03167fd7dee2702d63ad89917b6a4da9981c90c4d24f8c2bdfd64c604ecae57d8d06518260405190815260200160405180910390a25050565b60008282018381101561054b57fe5b93925050505600a165627a7a72305820ae087168599cc24bed3da66cb1a1a7c025f9a76ea8c792c12aadada457f1fd060029",
  "source": "pragma solidity 0.4.21;\n\nimport './SafeMath.sol';\nimport './Ownable.sol';\nimport './RefundVault.sol';\nimport \"./ICOEngineInterface.sol\";\nimport \"./KYCBase.sol\";\nimport \"./BLS.sol\";\nimport \"./usingOraclize.sol\";\n\n\ncontract BitLumensCrowdsale is Ownable, ICOEngineInterface, KYCBase,usingOraclize {\n    using  SafeMath for uint;\n    enum State {Running,Success,Failure}\n\n\n    uint public etherPriceUSD;\n    event Log(string text);\n\n\n    // Current ETH/USD exchange rate\n    uint256 public ETH_USD_EXCHANGE_CENTS = 500; // set by oraclize\n\n    uint public USD_SOFT_CAP;\n    uint public USD_HARD_CAP;\n\n    uint public BLS_TOTAL_CAP;\n    uint public BLS_PRE_ICO;\n\n    State public state;\n\n    BLS public token;\n\n    address public wallet;\n\n    // from ICOEngineInterface\n    uint public startTime;\n    uint public endTime;\n    // Time Rounds for ICO\n    uint public roundTwoTime;\n    uint public roundThreeTime;\n    uint public roundFourTime;\n    uint public roundFiveTime;\n\n    // Discount multipliers , we will divide by 10 later -- divede by 10 later\n    uint public constant TOKEN_FIRST_PRICE_RATE  = 20;\n    uint public constant TOKEN_SECOND_PRICE_RATE = 15;\n    uint public constant TOKEN_THIRD_PRICE_RATE  = 14;\n    uint public constant TOKEN_FOURTH_PRICE_RATE  = 13;\n    uint public constant TOKEN_FIFTH_PRICE_RATE = 12;\n\n\n    // to track if team members already got their tokens\n    bool public teamTokensDelivered = false;\n    bool public bountyDelivered = false;\n    bool public bitlumensDelivered = false;\n\n    // from ICOEngineInterface\n    uint public remainingTokens;\n    // from ICOEngineInterface\n    uint public totalTokens;\n\n    // amount of wei raised\n    uint public weiRaised;\n\n    //amount of $$ raised\n    uint public dollarRaised;\n\n    // boolean to make sure preallocate is called only once\n    bool public isPreallocated;\n\n    // vault for refunding\n    RefundVault public vault;\n\n    /**\n     * event for token purchase logging\n     * @param purchaser who paid for the tokens\n     * @param beneficiary who got the token\n     * @param value weis paid for purchase\n     * @param amount amount of tokens purchased\n     */\n    event TokenPurchase(address indexed purchaser, address indexed beneficiary, uint256 value, uint256 amount);\n\n    /* event for ICO successfully finalized */\n    event FinalizedOK();\n\n    /* event for ICO not successfully finalized */\n    event FinalizedNOK();\n\n    /**\n     * event for additional token minting\n     * @param to who got the tokens\n     * @param amount amount of tokens purchased\n     */\n    event Preallocated(address indexed to, uint256 amount);\n\n    /**\n     *  Constructor\n     */\n    function BitLumensCrowdsale(\n      address [] kycSigner,\n      address _token,\n      address _wallet,\n      uint _startTime,\n      uint _roundTwoTime,\n      uint _roundThreeTime,\n      uint _roundFourTime,\n      uint _roundFiveTime,\n      uint _endTime,\n      uint _BlsPreIco,\n      uint _blsTotalCap,\n      uint _softCapUsd,\n      uint _hardCapUsd,\n      uint _ethUsdExchangeCents\n      )\n        public payable\n        KYCBase(kycSigner)\n    {\n        require(_token != address(0));\n        require(_wallet != address(0));\n\n        require(_startTime > now);\n        require (_startTime < _roundTwoTime);\n        require (_roundTwoTime < _roundThreeTime);\n        require (_roundThreeTime < _roundFourTime);\n        require (_roundFourTime < _roundFiveTime);\n        require (_roundFiveTime < _endTime);\n\n\n        //OAR = OraclizeAddrResolverI(0x6f485C8BF6fc43eA212E93BBF8ce046C7f1cb475);\n\n        token = BLS(_token);\n        wallet = _wallet;\n\n        startTime = _startTime;\n        endTime = _endTime;\n        roundTwoTime= _roundTwoTime;\n        roundThreeTime= _roundThreeTime;\n        roundFourTime= _roundFourTime;\n        roundFiveTime= _roundFiveTime;\n\n        ETH_USD_EXCHANGE_CENTS = _ethUsdExchangeCents;\n\n        USD_SOFT_CAP = _softCapUsd;\n        USD_HARD_CAP = _hardCapUsd;\n\n        BLS_PRE_ICO = _BlsPreIco;\n        BLS_TOTAL_CAP = _blsTotalCap;\n        totalTokens = _blsTotalCap;\n        remainingTokens = _blsTotalCap;\n\n        vault = new RefundVault(_wallet);\n\n        state = State.Running;\n        //update();\n\n    }\n\n\n    //// oraclize START\n    function __callback(bytes32 _myid, string _result) {\n         require (msg.sender == oraclize_cbAddress());\n         Log(_result);\n         etherPriceUSD = parseInt(_result, 2);\n      }\n    function update() payable {\n       oraclize_query(\"URL\",\"json(https://min-api.cryptocompare.com/data/price?fsym=ETH&tsyms=USD).USD\");\n    }\n    //// oraclize END\n\n      function orcPrice()  public view returns(uint){\n        return(etherPriceUSD);\n      }\n\n    // function that is called from KYCBase\n    function releaseTokensTo(address buyer) internal returns(bool) {\n        // needs to be started\n        require(started());\n        // and not ended\n        require(!ended());\n        uint256 weiAmount = msg.value;\n        uint256 WeiDollars = weiAmount.mul(ETH_USD_EXCHANGE_CENTS) / 100;\n        uint256 currentPrice = price();\n        uint tokens = WeiDollars.mul(currentPrice);\n        tokens = tokens.div(10); //correct price rate\n        //calculate tokon Raised\n        uint tokenRaised = totalTokens - remainingTokens;\n        // must be less than hard cap\n\n        if(now < roundTwoTime ){\n          require(tokenRaised.add(tokens) <= BLS_PRE_ICO);\n        }\n\n\n        require(tokenRaised.add(tokens) <= BLS_TOTAL_CAP);\n        weiRaised = weiRaised + weiAmount;\n        // total usd in wallet\n        uint centsWeiRaised = weiRaised.mul(ETH_USD_EXCHANGE_CENTS);\n        uint goal  = USD_HARD_CAP * (10**18) * (10**2);\n        // if 25,000,000 $$ raised stop the ico\n        require(centsWeiRaised <= goal);\n        remainingTokens = remainingTokens.sub(tokens);\n        // mint tokens and transfer funds\n        token.mint(buyer, tokens);\n        forwardFunds();\n        TokenPurchase(msg.sender, buyer, weiAmount, tokens);\n        return true;\n    }\n\n    function forwardFunds() internal {\n      vault.deposit.value(msg.value)(msg.sender);\n    }\n\n\n    function finalize(address bitlumensAccount,address teamAccount,address bountyAccount) onlyOwner public {\n      require(state == State.Running);\n      require(ended());\n\n      uint centsWeiRaised = weiRaised.mul(ETH_USD_EXCHANGE_CENTS);\n      uint goal  = USD_SOFT_CAP * (10**18) * (10**2);\n\n      // Check the soft goal reaching\n      if(centsWeiRaised >= goal) {\n\n        //token Raised\n        uint tokenRaised = totalTokens - remainingTokens;\n        //bitlumes tokes 25% equivelent to (tokenraied / 2) (token raised = 50 %)\n        uint bitlumensTokens = tokenRaised.div(2);\n        uint bountyTokens = bitlumensTokens.div(100);\n        uint TeamTokens = bitlumensTokens.sub(bountyTokens);\n\n\n        token.mint(bitlumensAccount, bitlumensTokens);\n        token.mint(teamAccount, TeamTokens);\n        token.mint(bountyAccount, bountyTokens);\n\n        // if goal reached\n        // stop the minting\n        token.finishMinting();\n        // enable token transfers\n        token.enableTokenTransfers();\n        // close the vault and transfer funds to wallet\n        vault.close();\n        // ICO successfully finalized\n        // set state to Success\n        state = State.Success;\n        FinalizedOK();\n      }\n      else {\n        // if goal NOT reached\n        // ICO not successfully finalized\n        FinalizedNOK();\n        finalizeNOK();\n      }\n    }\n\n\n\n     function finalizeNOK() onlyOwner public {\n       // run checks again because this is a public function\n       require(state == State.Running);\n       require(ended());\n       // enable the refunds\n       vault.enableRefunds();\n       // ICO not successfully finalised\n       // set state to Failure\n       state = State.Failure;\n       FinalizedNOK();\n     }\n\n     // if crowdsale is unsuccessful, investors can claim refunds here\n     function claimRefund() public {\n       require(state == State.Failure);\n       vault.refund(msg.sender);\n    }\n\n\n    // from ICOEngineInterface\n    function started() public view returns(bool) {\n        return now >= startTime;\n    }\n\n    // from ICOEngineInterface\n    function ended() public view returns(bool) {\n        return now >= endTime || remainingTokens == 0;\n    }\n\n    function startTime() public view returns(uint) {\n      return(startTime);\n    }\n\n    function endTime() public view returns(uint){\n      return(endTime);\n    }\n\n    function totalTokens() public view returns(uint){\n      return(totalTokens);\n    }\n\n    function remainingTokens() public view returns(uint){\n      return(remainingTokens);\n    }\n\n    // return the price as number of tokens released for each ether\n    function price() public view returns(uint){\n      // determine which discount to apply\n      if (now < roundTwoTime) {\n          return(TOKEN_FIRST_PRICE_RATE);\n      } else if (now < roundThreeTime){\n          return (TOKEN_SECOND_PRICE_RATE);\n      } else if (now < roundFourTime) {\n          return (TOKEN_THIRD_PRICE_RATE);\n      }else if (now < roundFiveTime) {\n          return (TOKEN_FOURTH_PRICE_RATE);\n      } else {\n          return (TOKEN_FIFTH_PRICE_RATE);\n      }\n    }\n\n    // No payable fallback function, the tokens must be buyed using the functions buyTokens and buyTokensFor\n    function () public {\n        revert();\n    }\n\n}\n",
  "sourcePath": "/Applications/MAMP/htdocs/BlsCrowdSale/contracts/BitLumensCrowdsale.sol",
  "compiler": {
    "name": "solc",
    "version": "0.4.21+commit.dfe3193c.Emscripten.clang"
  },
  "schemaVersion": "2.0.0",
  "updatedAt": "2018-05-19T02:56:41.143Z"
}