{
  "contractName": "BLS",
  "abi": [
    {
      "constant": true,
      "inputs": [],
      "name": "mintingFinished",
      "outputs": [
        {
          "name": "",
          "type": "bool"
        }
      ],
      "payable": false,
      "stateMutability": "view",
      "type": "function"
    },
    {
      "constant": true,
      "inputs": [],
      "name": "name",
      "outputs": [
        {
          "name": "",
          "type": "string"
        }
      ],
      "payable": false,
      "stateMutability": "view",
      "type": "function"
    },
    {
      "constant": true,
      "inputs": [],
      "name": "totalSupply",
      "outputs": [
        {
          "name": "",
          "type": "uint256"
        }
      ],
      "payable": false,
      "stateMutability": "view",
      "type": "function"
    },
    {
      "constant": true,
      "inputs": [],
      "name": "decimals",
      "outputs": [
        {
          "name": "",
          "type": "uint8"
        }
      ],
      "payable": false,
      "stateMutability": "view",
      "type": "function"
    },
    {
      "constant": false,
      "inputs": [
        {
          "name": "_to",
          "type": "address"
        },
        {
          "name": "_amount",
          "type": "uint256"
        }
      ],
      "name": "mint",
      "outputs": [
        {
          "name": "",
          "type": "bool"
        }
      ],
      "payable": false,
      "stateMutability": "nonpayable",
      "type": "function"
    },
    {
      "constant": true,
      "inputs": [
        {
          "name": "_owner",
          "type": "address"
        }
      ],
      "name": "balanceOf",
      "outputs": [
        {
          "name": "balance",
          "type": "uint256"
        }
      ],
      "payable": false,
      "stateMutability": "view",
      "type": "function"
    },
    {
      "constant": false,
      "inputs": [],
      "name": "finishMinting",
      "outputs": [
        {
          "name": "",
          "type": "bool"
        }
      ],
      "payable": false,
      "stateMutability": "nonpayable",
      "type": "function"
    },
    {
      "constant": true,
      "inputs": [],
      "name": "owner",
      "outputs": [
        {
          "name": "",
          "type": "address"
        }
      ],
      "payable": false,
      "stateMutability": "view",
      "type": "function"
    },
    {
      "constant": true,
      "inputs": [],
      "name": "symbol",
      "outputs": [
        {
          "name": "",
          "type": "string"
        }
      ],
      "payable": false,
      "stateMutability": "view",
      "type": "function"
    },
    {
      "constant": true,
      "inputs": [],
      "name": "enableTransfers",
      "outputs": [
        {
          "name": "",
          "type": "bool"
        }
      ],
      "payable": false,
      "stateMutability": "view",
      "type": "function"
    },
    {
      "constant": true,
      "inputs": [
        {
          "name": "_owner",
          "type": "address"
        },
        {
          "name": "_spender",
          "type": "address"
        }
      ],
      "name": "allowance",
      "outputs": [
        {
          "name": "",
          "type": "uint256"
        }
      ],
      "payable": false,
      "stateMutability": "view",
      "type": "function"
    },
    {
      "constant": false,
      "inputs": [
        {
          "name": "newOwner",
          "type": "address"
        }
      ],
      "name": "transferOwnership",
      "outputs": [],
      "payable": false,
      "stateMutability": "nonpayable",
      "type": "function"
    },
    {
      "anonymous": false,
      "inputs": [
        {
          "indexed": true,
          "name": "to",
          "type": "address"
        },
        {
          "indexed": false,
          "name": "amount",
          "type": "uint256"
        }
      ],
      "name": "Mint",
      "type": "event"
    },
    {
      "anonymous": false,
      "inputs": [],
      "name": "MintFinished",
      "type": "event"
    },
    {
      "anonymous": false,
      "inputs": [
        {
          "indexed": true,
          "name": "previousOwner",
          "type": "address"
        },
        {
          "indexed": true,
          "name": "newOwner",
          "type": "address"
        }
      ],
      "name": "OwnershipTransferred",
      "type": "event"
    },
    {
      "anonymous": false,
      "inputs": [
        {
          "indexed": true,
          "name": "owner",
          "type": "address"
        },
        {
          "indexed": true,
          "name": "spender",
          "type": "address"
        },
        {
          "indexed": false,
          "name": "value",
          "type": "uint256"
        }
      ],
      "name": "Approval",
      "type": "event"
    },
    {
      "anonymous": false,
      "inputs": [
        {
          "indexed": true,
          "name": "from",
          "type": "address"
        },
        {
          "indexed": true,
          "name": "to",
          "type": "address"
        },
        {
          "indexed": false,
          "name": "value",
          "type": "uint256"
        }
      ],
      "name": "Transfer",
      "type": "event"
    },
    {
      "constant": false,
      "inputs": [
        {
          "name": "_to",
          "type": "address"
        },
        {
          "name": "_value",
          "type": "uint256"
        }
      ],
      "name": "transfer",
      "outputs": [
        {
          "name": "",
          "type": "bool"
        }
      ],
      "payable": false,
      "stateMutability": "nonpayable",
      "type": "function"
    },
    {
      "constant": false,
      "inputs": [
        {
          "name": "_from",
          "type": "address"
        },
        {
          "name": "_to",
          "type": "address"
        },
        {
          "name": "_value",
          "type": "uint256"
        }
      ],
      "name": "transferFrom",
      "outputs": [
        {
          "name": "",
          "type": "bool"
        }
      ],
      "payable": false,
      "stateMutability": "nonpayable",
      "type": "function"
    },
    {
      "constant": false,
      "inputs": [
        {
          "name": "_spender",
          "type": "address"
        },
        {
          "name": "_value",
          "type": "uint256"
        }
      ],
      "name": "approve",
      "outputs": [
        {
          "name": "",
          "type": "bool"
        }
      ],
      "payable": false,
      "stateMutability": "nonpayable",
      "type": "function"
    },
    {
      "constant": false,
      "inputs": [
        {
          "name": "_spender",
          "type": "address"
        },
        {
          "name": "_addedValue",
          "type": "uint256"
        }
      ],
      "name": "increaseApproval",
      "outputs": [
        {
          "name": "",
          "type": "bool"
        }
      ],
      "payable": false,
      "stateMutability": "nonpayable",
      "type": "function"
    },
    {
      "constant": false,
      "inputs": [
        {
          "name": "_spender",
          "type": "address"
        },
        {
          "name": "_subtractedValue",
          "type": "uint256"
        }
      ],
      "name": "decreaseApproval",
      "outputs": [
        {
          "name": "",
          "type": "bool"
        }
      ],
      "payable": false,
      "stateMutability": "nonpayable",
      "type": "function"
    },
    {
      "constant": false,
      "inputs": [],
      "name": "enableTokenTransfers",
      "outputs": [],
      "payable": false,
      "stateMutability": "nonpayable",
      "type": "function"
    }
  ],
  "bytecode": "0x606060409081526003805460a060020a60ff02191690558051908101604052600981527f424c5320546f6b656e00000000000000000000000000000000000000000000006020820152600490805161005b9291602001906100d8565b5060408051908101604052600381527f424c530000000000000000000000000000000000000000000000000000000000602082015260059080516100a39291602001906100d8565b5060068054601260ff199091161761ff001916905560038054600160a060020a03191633600160a060020a0316179055610173565b828054600181600116156101000203166002900490600052602060002090601f016020900481019282601f1061011957805160ff1916838001178555610146565b82800160010185558215610146579182015b8281111561014657825182559160200191906001019061012b565b50610152929150610156565b5090565b61017091905b80821115610152576000815560010161015c565b90565b610d8f806101826000396000f3006060604052600436106100fb5763ffffffff7c010000000000000000000000000000000000000000000000000000000060003504166305d2035b811461010057806306fdde0314610127578063095ea7b3146101b15780631788de80146101d357806318160ddd146101e857806323b872dd1461020d578063313ce5671461023557806340c10f191461025e578063661884631461028057806370a08231146102a25780637d64bcb4146102c15780638da5cb5b146102d457806395d89b4114610303578063a9059cbb14610316578063af35c6c714610338578063d73dd6231461034b578063dd62ed3e1461036d578063f2fde38b14610392575b600080fd5b341561010b57600080fd5b6101136103b1565b604051901515815260200160405180910390f35b341561013257600080fd5b61013a6103d2565b60405160208082528190810183818151815260200191508051906020019080838360005b8381101561017657808201518382015260200161015e565b50505050905090810190601f1680156101a35780820380516001836020036101000a031916815260200191505b509250505060405180910390f35b34156101bc57600080fd5b610113600160a060020a0360043516602435610470565b34156101de57600080fd5b6101e661049a565b005b34156101f357600080fd5b6101fb6104c6565b60405190815260200160405180910390f35b341561021857600080fd5b610113600160a060020a03600435811690602435166044356104cc565b341561024057600080fd5b6102486104f8565b60405160ff909116815260200160405180910390f35b341561026957600080fd5b610113600160a060020a0360043516602435610501565b341561028b57600080fd5b610113600160a060020a0360043516602435610620565b34156102ad57600080fd5b6101fb600160a060020a036004351661064a565b34156102cc57600080fd5b610113610665565b34156102df57600080fd5b6102e7610712565b604051600160a060020a03909116815260200160405180910390f35b341561030e57600080fd5b61013a610721565b341561032157600080fd5b610113600160a060020a036004351660243561078c565b341561034357600080fd5b6101136107af565b341561035657600080fd5b610113600160a060020a03600435166024356107bd565b341561037857600080fd5b6101fb600160a060020a03600435811690602435166107e0565b341561039d57600080fd5b6101e6600160a060020a036004351661080b565b60035474010000000000000000000000000000000000000000900460ff1681565b60048054600181600116156101000203166002900480601f0160208091040260200160405190810160405280929190818152602001828054600181600116156101000203166002900480156104685780601f1061043d57610100808354040283529160200191610468565b820191906000526020600020905b81548152906001019060200180831161044b57829003601f168201915b505050505081565b600654600090610100900460ff16151561048957600080fd5b61049383836108a6565b9392505050565b60035433600160a060020a039081169116146104b557600080fd5b6006805461ff001916610100179055565b60015490565b600654600090610100900460ff1615156104e557600080fd5b6104f0848484610912565b949350505050565b60065460ff1681565b60035460009033600160a060020a0390811691161461051f57600080fd5b60035474010000000000000000000000000000000000000000900460ff161561054757600080fd5b60015461055a908363ffffffff610a9216565b600155600160a060020a038316600090815260208190526040902054610586908363ffffffff610a9216565b600160a060020a0384166000818152602081905260409081902092909255907f0f6798a560793a54c3bcfe86a93cde1e73087d944c0ea20544137d41213968859084905190815260200160405180910390a2600160a060020a03831660007fddf252ad1be2c89b69c2b068fc378daa952ba7f163c4a11628f55a4df523b3ef8460405190815260200160405180910390a350600192915050565b600654600090610100900460ff16151561063957600080fd5b6106438383610aa1565b5092915050565b600160a060020a031660009081526020819052604090205490565b60035460009033600160a060020a0390811691161461068357600080fd5b60035474010000000000000000000000000000000000000000900460ff16156106ab57600080fd5b6003805474ff00000000000000000000000000000000000000001916740100000000000000000000000000000000000000001790557fae5184fba832cb2b1f702aca6117b8d265eaf03ad33eb133f19dde0f5920fa0860405160405180910390a150600190565b600354600160a060020a031681565b60058054600181600116156101000203166002900480601f0160208091040260200160405190810160405280929190818152602001828054600181600116156101000203166002900480156104685780601f1061043d57610100808354040283529160200191610468565b600654600090610100900460ff1615156107a557600080fd5b6104938383610b9b565b600654610100900460ff1681565b600654600090610100900460ff1615156107d657600080fd5b6106438383610cad565b600160a060020a03918216600090815260026020908152604080832093909416825291909152205490565b60035433600160a060020a0390811691161461082657600080fd5b600160a060020a038116151561083b57600080fd5b600354600160a060020a0380831691167f8be0079c531659141344cd1fd0a4f28419497f9722a3daafe3b4186f6b6457e060405160405180910390a36003805473ffffffffffffffffffffffffffffffffffffffff1916600160a060020a0392909216919091179055565b600160a060020a03338116600081815260026020908152604080832094871680845294909152808220859055909291907f8c5be1e5ebec7d5bd14f71427d1e84f3dd0314c0f7b2291e5b200ac8c7c3b9259085905190815260200160405180910390a350600192915050565b6000600160a060020a038316151561092957600080fd5b600160a060020a03841660009081526020819052604090205482111561094e57600080fd5b600160a060020a038085166000908152600260209081526040808320339094168352929052205482111561098157600080fd5b600160a060020a0384166000908152602081905260409020546109aa908363ffffffff610d5116565b600160a060020a0380861660009081526020819052604080822093909355908516815220546109df908363ffffffff610a9216565b600160a060020a0380851660009081526020818152604080832094909455878316825260028152838220339093168252919091522054610a25908363ffffffff610d5116565b600160a060020a03808616600081815260026020908152604080832033861684529091529081902093909355908516917fddf252ad1be2c89b69c2b068fc378daa952ba7f163c4a11628f55a4df523b3ef9085905190815260200160405180910390a35060019392505050565b60008282018381101561049357fe5b600160a060020a03338116600090815260026020908152604080832093861683529290529081205480831115610afe57600160a060020a033381166000908152600260209081526040808320938816835292905290812055610b35565b610b0e818463ffffffff610d5116565b600160a060020a033381166000908152600260209081526040808320938916835292905220555b600160a060020a0333811660008181526002602090815260408083209489168084529490915290819020547f8c5be1e5ebec7d5bd14f71427d1e84f3dd0314c0f7b2291e5b200ac8c7c3b925915190815260200160405180910390a35060019392505050565b6000600160a060020a0383161515610bb257600080fd5b600160a060020a033316600090815260208190526040902054821115610bd757600080fd5b600160a060020a033316600090815260208190526040902054610c00908363ffffffff610d5116565b600160a060020a033381166000908152602081905260408082209390935590851681522054610c35908363ffffffff610a9216565b60008085600160a060020a0316600160a060020a031681526020019081526020016000208190555082600160a060020a031633600160a060020a03167fddf252ad1be2c89b69c2b068fc378daa952ba7f163c4a11628f55a4df523b3ef8460405190815260200160405180910390a350600192915050565b600160a060020a033381166000908152600260209081526040808320938616835292905290812054610ce5908363ffffffff610a9216565b600160a060020a0333811660008181526002602090815260408083209489168084529490915290819020849055919290917f8c5be1e5ebec7d5bd14f71427d1e84f3dd0314c0f7b2291e5b200ac8c7c3b92591905190815260200160405180910390a350600192915050565b600082821115610d5d57fe5b509003905600a165627a7a72305820d1af6f3cada48ff876ae7d4cacfb418e08dcef801e80cc2020475ccc04ea3f710029",
  "source": "pragma solidity 0.4.21;\n\nimport './MintableToken.sol';\nimport './SafeMath.sol';\n\ncontract BLS is MintableToken {\n  using SafeMath for uint256;\n\n  string public name = \"BLS Token\";\n  string public symbol = \"BLS\";\n  uint8 public decimals = 18;\n\n  bool public enableTransfers = false;\n\n  // functions overrides in order to maintain the token locked during the ICO\n  function transfer(address _to, uint256 _value) public returns(bool) {\n    require(enableTransfers);\n    return super.transfer(_to,_value);\n  }\n\n  function transferFrom(address _from, address _to, uint256 _value) public returns(bool) {\n      require(enableTransfers);\n      return super.transferFrom(_from,_to,_value);\n  }\n\n  function approve(address _spender, uint256 _value) public returns (bool) {\n    require(enableTransfers);\n    return super.approve(_spender,_value);\n  }\n\n  /* function burn(uint256 _value) public {\n    require(enableTransfers);\n    super.burn(_value);\n  } */\n\n  function increaseApproval(address _spender, uint _addedValue) public returns (bool) {\n    require(enableTransfers);\n    super.increaseApproval(_spender, _addedValue);\n  }\n\n  function decreaseApproval(address _spender, uint _subtractedValue) public returns (bool) {\n    require(enableTransfers);\n    super.decreaseApproval(_spender, _subtractedValue);\n  }\n\n  // enable token transfers\n  function enableTokenTransfers() public onlyOwner {\n    enableTransfers = true;\n  }\n}\n",
  "sourcePath": "/Applications/MAMP/htdocs/BlsCrowdSale/contracts/BLS.sol",
  "compiler": {
    "name": "solc",
    "version": "0.4.21+commit.dfe3193c.Emscripten.clang"
  },
  "schemaVersion": "2.0.0",
  "updatedAt": "2018-05-19T02:56:41.136Z"
}